:020000040800F2
:10000000B8110020495A00085557000857570008F2
:10001000595700085B5700085D57000800000000B2
:100020000000000000000000000000005F57000812
:10003000615700080000000063570008655700087A
:10004000795A00087D5A0008815A0008855A00082C
:10005000895A00088D5A0008915A0008955A0008DC
:10006000995A00089D5A0008A15A0008A55A00088C
:10007000A95A0008AD5A0008B15A0008B55A00083C
:10008000B95A0008BD5A0008C15A0008C55A0008EC
:10009000C95A0008CD5A0008D15A0008D55A00089C
:1000A000D95A0008DD5A0008E15A0008E55A00084C
:1000B000E95A0008ED5A0008F15A0008F55A0008FC
:1000C000F95A0008FD5A0008015B0008055B0008AA
:1000D000095B00080D5B0008115B0008155B000858
:1000E000195B00081D5B0008215B0008255B000808
:1000F000295B00082D5B0008315B0008355B0008B8
:10010000395B00083D5B0008415B0008455B000867
:10011000495B00084D5B0008515B0008555B000817
:10012000595B00085D5B0008615B0008655B0008C7
:10013000695B000800000000000000006D5B000823
:10014000715B0008755B0008795B00086D5700085B
:10015000775700087D5B0008815B0008855B00081D
:10016000895B00088D5B0008915B0008955B0008C7
:10017000995B00089D5B0008A15B0008000000007F
:1001800000000000A55B0008000000000000000067
:10019000A95B00080000000000000000AD5B000843
:1001A000000000000000000000000000B15B00083B
:1001B000B55B0008B95B0008BD5B0008C15B0008C7
:1001C000C55B00080EB418B504000898012817D1C3
:1001D000A06B30F48030A063E168DFF828080140AC
:1001E000E160E06830F44010E0600F98012803D12E
:1001F000E06850F48010E060200000F095FE09E017
:10020000E06850F04000E060200000F08DFE5FF4F8
:100210008030A0630698012807D1A06850F006003E
:10022000A060A06850F02000A060002012BC5DF823
:1002300010FB0100886850F00100886000207047C2
:10024000010088684008400088600020704738B589
:1002500004000D00E06830F0C040E0602800C0B24B
:10026000012804D1E06850F00050E06007E0280069
:10027000C0B2002803D1E06850F08040E060322036
:1002800000F076FE002032BD0EB430B5040000252B
:10029000A06B50F40010A0630D9800280BD1A06B48
:1002A00030F40010A063206850F040002060206807
:1002B00050F080002060002014F56061086014F5A3
:1002C0000060006814F500610860089801280CD1EE
:1002D0000598002804D10021200000F0D5F808E09E
:1002E0000121200000F0D0F803E00321200000F0FD
:1002F000CBF81021200000F0A5F8200000F0B4F8A1
:10030000002014F500610861002014F500614861C7
:100310005FF0FF3014F500618861002014F5006182
:10032000C86100200399884222D214EB401111F5D4
:1003300010610968002907D55FF0904114EB401265
:1003400012F51062116005E0002114EB401212F565
:100350001062116014EB401111F5106100220A6166
:1003600014EB401111F51061FF228A60401CD9E79F
:1003700000210398814222D214EB411010F5306025
:100380000068002807D55FF0904014EB411212F589
:100390003062106005E0002014EB411212F530626B
:1003A000106014EB411010F530600022026114EB74
:1003B000411010F53060FF228260491CD9E714F526
:1003C0000060006930F4807014F5006210610698D6
:1003D000012812D1DFF8880B14F50062106314F5C0
:1003E0000060006B40F4803050F0030014F50062B0
:1003F000106314F50060006B01000020A0617FF025
:10040000804060610698002803D1A06950F0100078
:10041000A061A269DFF84C0B0243A2610998002891
:1004200003D0A06950F00800A0610D98012805D103
:10043000A06940F0804050F00400A061002030BC72
:100440005DF810FB02000023880150F020001061CD
:100450005B1CDFF8140B834201D3032003E0106917
:100460008006F5D4002070470100002210200861AA
:10047000521CDFF8F40A824201D3032003E008692A
:10048000C006F5D400207047020012F50060036832
:100490000800C0B2034312F50060036000207047FB
:1004A0000100002011F50062926812F0060F02D1DF
:1004B0000022100019E011F50062926812F00602A5
:1004C000022A06D011F50062926812F00602062A8E
:1004D00002D10322100008E011F50062926812F0C8
:1004E0000602042A01D102221000C0B2704730B4C3
:1004F0000200487801282DD112F50060C36901245B
:1005000008788440A4B2234312F50060C3610878E0
:1005100012EB401010F510600068000444D4087815
:1005200012EB401010F510600B7812EB431313F52B
:1005300010631B688C686405640DCD7854EA8544AB
:100540000D7854EA855444F0805454F40044234315
:10055000036029E012F50060C36901240878844033
:1005600053EA044312F50060C361087812EB4010AF
:1005700010F530600068000416D4087812EB4010C3
:1005800010F530600B7812EB431313F530631B68E2
:100590008C686405640DCD7854EA854444F0805439
:1005A00054F4004423430360002030BC704770B50E
:1005B00004000D000026687801283CD1287814EB4F
:1005C000401010F51060297814EB411111F51061FD
:1005D000096831F400410160287814EB401010F5EF
:1005E00010605FF000610160287814EB401010F596
:1005F00010605FF080410160761CDFF86C09864274
:1006000001D3032058E0287814EB401010F5106057
:1006100080684000F0D410212000FFF713FF14F58C
:100620000060C16901222878824092B2914314F59A
:100630000060C1613FE0287814EB401010F5306095
:10064000297814EB411111F53061096831F400414A
:100650000160287814EB401010F530605FF0006105
:100660000160287814EB401010F530605FF0804195
:100670000160761CDFF8F008864201D303201BE0FE
:10068000287814EB401010F530608068C006F0D474
:1006900014F50060406850F4806014F50061486013
:1006A00014F50060C16901222878824031EA0241D4
:1006B00014F50060C161002070BDF8B504000D00A4
:1006C000160000276878012840F0EF80686900284C
:1006D0002AD1287814EB401010F51060297814EB1B
:1006E000411111F5106109696FF3DC41016128784E
:1006F00014EB401010F51060297814EB411111F53E
:100700001061096951F400210161287814EB40104F
:1007100010F51060297814EB411111F51061096989
:10072000C90CC904016162E0287814EB401010F58F
:100730001060297814EB411111F510610969C90C99
:10074000C9040161287814EB401010F51060297875
:1007500014EB411111F5106109696FF3DC4101617E
:10076000287814EB401111F51061287814EB401033
:1007700010F5106002696B69A868C3185B1EA86851
:10078000B3FBF0F0DFF8E43713EAC0431A430A6121
:10079000287814EB401010F51060297814EB411103
:1007A00011F5106109696A695203520B1143016125
:1007B000E87801281BD1287814EB401010F5106060
:1007C000297814EB411111F51061096931F0C0412C
:1007D0000161287814EB401010F51060297814EBB3
:1007E000411111F51061096951F0005101613000AA
:1007F000C0B2012807D1287814EB401010F5106022
:10080000296941610FE0E87801280CD06869002867
:1008100009D014F50060416B012228788240114311
:1008200014F500604163E878012821D114F50060D7
:100830008068C0050ED4287814EB401010F51060C5
:10084000297814EB411111F51061096851F000513C
:1008500001600DE0287814EB401010F51060297845
:1008600014EB411111F51061096851F080510160DC
:10087000287814EB401010F51060297814EB411122
:1008800011F51061096851F004410160E878012810
:1008900040F0B5803000C0B200906B699BB22A78FE
:1008A000E968200000F0A7F9A9E0287814EB4010CF
:1008B00010F53060297814EB411111F530610969A8
:1008C000C90CC9040161287814EB401010F53060A0
:1008D000297814EB411111F5306109696FF3DC419E
:1008E0000161686900281ED1287814EB401010F5CA
:1008F0003060297814EB411111F530610969AA685B
:100900005203520B11430161287814EB401010F58B
:100910003060297814EB411111F53061096951F407
:10092000002101612DE06969A8684118491EA86885
:10093000B1FBF0F00700287814EB401010F53060A0
:10094000297814EB411111F5306109693A0092B22E
:10095000DFF8183613EAC24319430161287814EB13
:10096000401111F53061287814EB401010F530601B
:100970000269AB68380080B243435B035B0B1A43E8
:100980000A613000C0B2012806D1287814EB40106B
:1009900010F53060E9684161E878012821D114F54B
:1009A00000608068C0050ED4287814EB401010F564
:1009B0003060297814EB411111F53061096851F06C
:1009C000005101600DE0287814EB401010F5306004
:1009D000297814EB411111F53061096851F080510B
:1009E0000160287814EB401010F53060297814EB82
:1009F000411111F53061096851F004410160002096
:100A0000F2BD0000BFFFBDFF30B4030048780128ED
:100A100040F09680486900282AD1087813EB4010EE
:100A200010F510600C7813EB441414F5106424696D
:100A30006FF3DC440461087813EB401010F510608C
:100A40000C7813EB441414F51064246954F4002456
:100A50000461087813EB401010F510600C7813EB6C
:100A6000441414F510642469E40CE40404613FE0C8
:100A7000087813EB401010F510600C7813EB441459
:100A800014F510642469E40CE4040461087813EBA1
:100A9000401010F510600C7813EB441414F510643A
:100AA00024696FF3DC44046188684C69A04201D278
:100AB00088684861087813EB401010F510600C78D6
:100AC00013EB441414F51064246954F400240461F5
:100AD000087813EB401010F510600C7813EB4414F9
:100AE00014F5106424694D696D036D0B2C4304618A
:100AF000087813EB401010F510600C7813EB4414D9
:100B000014F51064246854F0044404601000C0B26A
:100B1000012807D1087813EB401010F510600C691C
:100B2000446165E04869002862D013F50060446BB9
:100B30000125087885402C4313F50060446357E095
:100B4000087813EB401010F530600C7813EB441468
:100B500014F530642469E40CE4040461087813EBB0
:100B6000401010F530600C7813EB441414F5306429
:100B700024696FF3DC4404614869002801D0886867
:100B80004861087813EB401010F530600C7813EBD7
:100B9000441414F53064246954F400240461087882
:100BA00013EB401010F530600C7813EB441414F57F
:100BB000306424698D686D036D0B2C430461100053
:100BC000C0B2012806D1087813EB401010F5306050
:100BD000CC684461087813EB401010F530600C7855
:100BE00013EB441414F53064246854F00444046096
:100BF000002030BC7047F0B50500059C002600279A
:100C00002000C0B2002818D1180080B2C01C800893
:100C1000060000200700B7420FD2D1F800C0964668
:100C20005FFA8EFE4FF4805000FB0E5E1EF5805E74
:100C3000CEF800C07F1C091DEDE70020F0BD30B4E8
:100C4000030000201500ADB2ED1CAD080024AC423D
:100C500006D213F5805000680860641C091DF6E791
:100C6000080030BC704702004878012824D1087879
:100C700012EB401010F51060006800280DD40878C1
:100C800012EB401010F510600B7812EB431313F5C4
:100C900010631B6833F080430360087812EB401048
:100CA00010F510600B7812EB431313F510631B68FB
:100CB00053F40013036023E0087812EB401010F5A2
:100CC0003060006800280DD4087812EB401010F551
:100CD00030600B7812EB431313F530631B6833F06D
:100CE00080430360087812EB401010F530600B78F9
:100CF00012EB431313F530631B6853F400130360C6
:100D00000020704702004878012822D1087812EBB1
:100D1000401010F510600B7812EB431313F51063BD
:100D20001B6833F400130360C878032802D0C87826
:100D3000022830D1087812EB401010F510600B78C3
:100D400012EB431313F510631B6853F080530360D9
:100D500021E0087812EB401010F530600B7812EBB0
:100D6000431313F530631B6833F400130360C87832
:100D7000032802D0C87802280DD1087812EB401061
:100D800010F530600B7812EB431313F530631B68DA
:100D900053F08053036000207047020012F500609A
:100DA000006830F4FE6012F50063186012F5006010
:100DB00000680B00DBB21B0113F4FE63184312F54D
:100DC000006318600020704710B5040014F500603F
:100DD000406830F0020014F500614860032000F024
:100DE000C7F8002010BD10B5040014F5006040687D
:100DF00050F0020014F500614860032000F0B8F8DC
:100E0000002010BD0200002350699169084070471E
:100E1000020012F50060806912F50061C96908409E
:100E2000000C7047020012F50060806912F5006145
:100E3000C969084080B2704703000800C0B213EBD4
:100E4000401010F53060806813F500625269104060
:100E5000704710B4020012F50060036912F50060DB
:100E6000446B2000C840C00110F08000034308001C
:100E7000C0B212EB401010F510608068184010BC32
:100E80007047406910F001007047010011F51060D3
:100E90000068C00AC00211F51062106011F5006010
:100EA000806810F00600042807D111F51060006872
:100EB00050F0030011F51062106011F500604068F9
:100EC00050F4807011F5006250600020704710B43B
:100ED0000300002013F53064206113F530600069D1
:100EE00050F4002013F53064206113F53060006980
:100EF00050F0180013F53064206113F5306000697C
:100F000050F0C04013F5306420610800C0B20128E1
:100F100007D113F5306042615FF0802013F5306433
:100F20002060002010BC704710B401000022521C49
:100F30000D48824201D3032010E00B69002BF6D547
:100F400000230C6954F001040C615B1C834201D343
:100F5000032003E00A69D207F7D4002010BC7047D1
:100F60000001800000383C80410D03000000F81FA4
:100F700070B5040000F010F80500260016F1010F0E
:100F800002D004480078361800F006F8401BB04242
:100F9000FAD370BDD000002001480068704700BF40
:100FA0009C0900202DE9F84305000E00F02000F018
:100FB00093FD0400002C01D102201DE05FF0F00839
:100FC0005FF0000927004A464146380000F024FE41
:100FD000D5F89472396920003A689047002808D003
:100FE000D5F8900200F04BFE0020C5F890020220D8
:100FF00002E0C5F890420020BDE8F2832DE9F041FF
:1010000004000D00D4F890620127022F17DA5FF078
:101010000C0808FB07F0304490F8750000280CD04D
:1010200057F08001C9B2200000F054FF002008FBF7
:1010300007F806EB080181F875007F1CE5E75FF013
:101040000108B8F1020F17DA0C2707FB08F030444B
:1010500090F88D0000280CD040460100C9B2200055
:1010600000F038FF002007FB08F706EB070181F8C6
:101070008D0018F10108E4E70020BDE8F0812DE9BA
:10108000F84F04000D001600D4F890722900C9B280
:101090005C20414307EB010010F1140898F80400AC
:1010A00000060AD598F8041011F00F010C204143F6
:1010B00007EB010010F1700907E098F804100C200C
:1010C000414307EB010010F188093000C0B200284D
:1010D00036D198F80200002827D099F8050000289A
:1010E00008D0D9F800000178200000F0F3FE0020BD
:1010F00089F8050098F83C00002816D098F84010B0
:1011000011F00F010C20414307EB010070308146C4
:1011100099F80500002808D0D9F8000001782000CF
:1011200000F0D8FE002089F80500D8F858103000EB
:10113000C0B2D8F850209047002088F8020099E00B
:1011400018F10400C9F80000D8F858103000C0B2F7
:10115000D8F85020904788F80260D9F80000406B1A
:10116000D9F8001089698847A9F80600B9F806304F
:101170000122D9F800000178200000F09AFE012039
:1011800089F80500D9F8000010F10C01D9F8000029
:10119000406BD9F8002052699047D9F80010886058
:1011A000D9F80000007800061AD5D9F800000178B7
:1011B000200000F0BDFEDFF80C090068000A800482
:1011C000800CA9F80800D9F800008389D9F800003C
:1011D0008268D9F800000178200000F0F0FE49E0B4
:1011E000B9F80630D9F800008268D9F80000017813
:1011F000200000F0F4FE98F83C0000283AD098F85F
:10120000401011F00F010C20414307EB010070303A
:10121000814618F1400AC9F800A00320A9F8060089
:10122000012089F80400B9F8063001229AF800106C
:10123000200000F03EFE012089F80500DAF80800E1
:10124000DAF80410884783461AF10101584600F085
:1012500014F8DFF870080068000A8004800CA9F810
:101260000800B9F806301AF101029AF800102000BF
:1012700000F0A5FE0020BDE8F28F020050033E30D2
:101280007D23B0FBF3F31800800808701800800A73
:1012900048701800800C8870002070472DE9F047D6
:1012A00004000D000027D4F89082287810F0600028
:1012B000002828D0202840F0A880287810F00300CB
:1012C000012811D16878401E02D08038032804D844
:1012D0002900200000F09CFA14E02900200001F011
:1012E0009EFA022007000DE06878012804D1290049
:1012F000200000F03BFB05E02900200001F08FFA00
:101300000220070081E06878062804D00A281CD053
:101310000B283ED073E0688880B2000A80B2212892
:1013200012D1DFF8A407006812300600E8880A2806
:1013300002DB5FF0090901E0B5F806904A4692B277
:101340003100200001F0A8FA5FE05FF0000A98F891
:101350000100824516DA5C20A98800FB0AF24244AB
:10136000127DC9B291420AD1012200FB0AF0404429
:1013700010F11601200001F08FFA002047E01AF169
:10138000010AE4E72900200001F049FA02200700E1
:101390003BE05FF0000A98F8010082451EDA5C200D
:1013A000A98800FB0AF24244127DC9B2914212D1CF
:1013B000698800FB0AF04044807DC9B2814201D1B6
:1013C000002024E06A88D2B250460100C9B2200051
:1013D000FFF755FE1BE01AF1010ADCE7A888C0B24E
:1013E000002805D16888C0B2002801D100200EE095
:1013F0002900200001F013FA0220070005E029006F
:10140000200001F00CFA022007003800C0B2BDE84D
:10141000F0870100DFF8B40600880880DFF8A8062E
:10142000006870472DE9F04104000D00D4F89012D7
:101430002A00D2B212F07F020C20424301EB0200DC
:1014400010F17006707900283FD0307900281BD148
:10145000306810F10C013068406B32685269904777
:1014600031688860DFF85C060068000A8004800C40
:101470003081306883893068826855F08001C9B254
:10148000200000F09CFD22E0307901281FD1D6F821
:101490000080D8F80800D8F804108847070018F131
:1014A00001013800FFF7E9FEDFF818060068000ABE
:1014B0008004800C3081032318F1010255F0800173
:1014C000C9B2200000F07BFD01E001F0D8FA002055
:1014D000BDE8F0812DE9F84F0400D4F8906296F849
:1014E000EE00002801D10020B9E096F8A400012800
:1014F00040D1D6F8A0707878062838D1B6F8EC90AC
:101500005FEA19295FFA89F9D7F80880484680B25E
:10151000012802D002280FD026E0D8F804000028C5
:1015200009D0FA6896F8A510B6F8EC00C0B280B2FF
:10153000D8F80430984719E096F8EE00012810D149
:10154000D8F8080000280BD016F1A5000500FA68AD
:101550002988B6F8EC00C0B280B2D8F808309847B5
:1015600001E001F08CFA01E001F089FA76E001F087
:1015700086FA73E0D6F8A070B6F8EC805FEA182817
:101580005FFA88F8404680B2012865D196F8EE00EF
:1015900001285ED1786A00285AD000208DF800001A
:1015A0007A6B694696F8A73096F8A600000250EAD2
:1015B000034096F8A53018437B6A98475FF000090E
:1015C0007078814544DA5FF05C0A0AFB09F0304428
:1015D0001830874239D10AFB09F0304490F85000A6
:1015E000002811D00AFB09F03044C06D0AFB09F154
:1015F0003144896D884783460AFB09F0304410F175
:1016000055015846FFF739FE9DF8000000281BD011
:101610000AFB09F03044807D002815D00AFB09FA46
:1016200006EB0A0090F816A0002248460100C9B255
:101630002000FFF724FD50460200D2B248460100C8
:10164000C9B22000FFF71BFD02E019F10109B7E75D
:1016500004E001F014FA01E001F011FA0020BDE805
:10166000F28F01000020704770B50400D4F890524A
:1016700000266878864217DA5C2101FB06F02844D0
:10168000807D00280ED001FB06F02844006E002863
:1016900008D001FB06F02844C06E01FB06F1294486
:1016A000096E8847761CE4E7002070BD2DE9F047FD
:1016B00004000D00D4F890825FF00109B9F1020F27
:1016C0006EDA0C2000FB09F0404470300600DFF8B1
:1016D000F4A3DAF80000000A8004800C0700707997
:1016E00000285AD0DFF8E80319F07F0110EB411110
:1016F0000968002951D5390089B211F0010119F0AA
:101700007F0210EB42121268C2F30042914207D0EE
:1017100039003289921C5205520D89B291423CD156
:1017200059F080010D002900C9B209060FD5290022
:10173000C9B211F07F0110EB4111096851F09041DD
:101740002A00D2B212F07F0210EB42100160290091
:10175000C9B2200000F0ECFBDAF80000000A8004B7
:10176000800C30813079012808D1F3883068421C20
:101770002900C9B2200000F022FC0EE030790028D8
:1017800009D130688389306882682900C9B2200095
:1017900000F015FC01E001F072F919F101098DE783
:1017A0000020BDE8F087020000207047F8B5040073
:1017B0000E00D4F890123200D2B20C20424301EB5A
:1017C000020010F18807787900281DD03100C9B2D5
:1017D000200000F014FCADF800003868416BBDF843
:1017E00000003A681269904769463868406B3A6869
:1017F000526990470500BDF800302A003100C9B297
:10180000200000F0ECFB01E001F039F90020F2BD0E
:101810002DE9F84F05000E0000240027D5F890822E
:10182000002088F8EE00B6F804905FEA192900203D
:1018300098F8001088420DDA4946020142441279B4
:10184000C9B2914204D101014144091D0C0001E0DB
:10185000401CEDE7002C05D13100280000F0DFFF2F
:10186000022081E0B6F802A05FEA1A2AA088C0B27E
:1018700010EA0A0F05D13100280000F0D0FF022045
:1018800072E07078000615D47088A8F8EC00C8F8EB
:10189000A040012088F8A400F088C8F8E80070781B
:1018A00088F8EE00F28818F1A501280001F017F879
:1018B000002059E06078062853D1D4F808B050468B
:1018C000C0B2012802D0022817D047E0002088F8D3
:1018D000A500DBF80000002808D0E26818F1A50197
:1018E0007088C0B280B2DBF800309847012218F14E
:1018F000A501280000F0D0FF32E018F1A500070094
:101900007078812806D021D3832817D012D3842859
:1019100018D01BE000200700DBF80C00002808D0DE
:10192000E26818F1A5017088C0B280B2DBF80C3013
:1019300098470DE01BF11200070009E01BF11000B1
:10194000070005E01BF11400070001E001F097F823
:1019500002223900280000F09FFF01E001F08FF81B
:1019600001E001F08CF80020BDE8F28F2DE9F8438A
:1019700005000E000024D5F89072B6F8048000200F
:101980007978884210DA5C21424601FB00F33B443F
:101990001B7ED2B29A4205D101FB00F139441831C5
:1019A0000C0001E0401CEBE7002C05D131002800C1
:1019B00000F035FF02206FE0B6F802905FEA1929C7
:1019C000A088C0B210EA090F05D13100280000F04C
:1019D00026FF022060E07078000615D47088A7F812
:1019E000EC00C7F8A040022087F8A400F088C7F8F0
:1019F000E800707887F8EE00F28817F1A50128005A
:101A000000F06DFF002047E04846C0B201283AD1FF
:101A10007078812804D030D3832822D015D32CE0CD
:101A200000200090206A002803D0616B6846226A7B
:101A30009047009887F8A5000098000A87F8A6004C
:101A40000098000C87F8A7001FE0E06A87F8A5005F
:101A5000E06A000A87F8A600E06A000C87F8A70091
:101A600013E0A06A87F8A500A06A000A87F8A6001C
:101A7000A06A000C87F8A70007E03100280000F0FA
:101A8000CEFE022008E000F0FAFF032217F1A501C4
:101A9000280000F001FF0020BDE8F28301000A20C9
:101AA00008800C48704738B505000C00002C06D0A3
:101AB000C5F89442226905490348A3689847002065
:101AC00032BD000008080050A0090020AC09002029
:101AD000000900506000002010B50446AFF30080FC
:101AE000204600F005F80446AFF30080204610BD04
:101AF00070B500F10F06F608F600B04240D2082E8D
:101B000004D2082602E0083000F047F8DFF804515C
:101B10002C68210005D1002007E00268B24221D2E2
:101B2000011D08680028F8D12068291D0A68824232
:101B300022D01368B34238BF111DF7D312E09319B6
:101B40000B60801B54685C600B6818601660096845
:101B500000291DBF48680028081D0020286002F1E8
:101B6000080070BD61B10A681068A0F10803B342B3
:101B7000E5D250680860EAE700F0A2FF0028C2D171
:101B8000002070BD10B5040006D0AFF300802046E1
:101B900000F003F8AFF3008010BD002800D17047BB
:101BA00070B4A0F108021368072B2BD913F0070FAC
:101BB00028D1184C616809B18A4202D25160626032
:101BC00013E0486800B3904238BF0146F9D31BE0E8
:101BD000964203D11B180B600A4606E0486810B114
:101BE000134498420ED350604A60506850B1136855
:101BF000D518854206D1002626600168CB181360EF
:101C00004068506070BC704708680E18B242DFD25E
:101C100070BC70478809002062F30F2262F31F42F4
:101C2000401810F0030308D0C91A1FD3DB0748BFC0
:101C300000F8012D28BF20F8022D130030B41446FF
:101C40001546103928BF20E93C00FAD8490728BFBB
:101C500020E90C0048BF40F8042D890028BF20F877
:101C6000022D48BF00F8012D30BC7047C91818BFBD
:101C700000F8012DCB0728BF00F8012D7047FFF7B2
:101C800081BFF0B40246106895681318506803EBE2
:101C90005004C0071DD54D441BE013F8017B05F827
:101CA000017B491EF9D1A0B1B60813F8011B06F05B
:101CB0000306032E08BF13F8016B01EB062149420E
:101CC000801C294405D011F8016B05F8016B401EFA
:101CD000F9D1A3420ED013F8016B16F0030104BF33
:101CE00013F8011BC91C30090F28DAD113F8010BB6
:101CF0000F30D6E7F0BC02F10C007047010049B28A
:101D000000290AD4012210F01F018A40DFF8AC1329
:101D100003005BB25B0941F82320704710B5040053
:101D2000DFF89C03016851F020710160DFF8940333
:101D3000016851F42A210160DFF88C03016851F039
:101D400070710160DFF88403016851F08001016067
:101D500000220321432000F02CFF4320FFF7CEFF99
:101D600010BD10B5040014F56F71D4F8F80300F03D
:101D7000A4FF10BD38B504000D002900C9B21C2015
:101D8000414304EB0100D0F804222900C9B2D4F881
:101D9000F80300F0C7FF31BD38B504000D0029007D
:101DA000C9B21C20414304EB0100426C2900C9B2B6
:101DB000D4F8F80300F0FEFF31BD10B50400D4F8EC
:101DC000F80301F0A1F810BD38B504000120E16866
:101DD000002902D0022902D003E0002502E00125FB
:101DE00000E00125D4F8F80301F056F82900C9B243
:101DF000D4F8F80301F073F831BD10B50400D4F83D
:101E0000F80301F070F810BD10B50400D4F8F80321
:101E100001F073F810BD38B504000D002900C9B2F7
:101E2000D4F8F80301F097F831BD38B504000D007F
:101E30002900C9B2D4F8F80301F078F831BD10B523
:101E40000400D4F8F80301F09BF810BD10B50400AD
:101E5000D4F8F80301F097F810BD10B504009C48C1
:101E60005FF0A04101600521416000210163402134
:101E70004161002101610021016202218161012192
:101E8000C1610221C1600021C16200214162C0F82C
:101E9000F843C4F8980201F084F800F0BAF8002082
:101EA00010BD10B50400D4F8980201F00FF900201D
:101EB00010BDF8B504000D0016001F003300DBB2A2
:101EC0003A0092B22900C9B2D4F8980201F0DDFBC1
:101ED0000020F2BD38B504000D002900C9B2D4F8C5
:101EE000980201F025FC2800C0B2000611D57949FE
:101EF0002800C0B210F07F0011EB40100268764855
:101F000002402800C0B210F07F0011EB40110A60BF
:101F10000CE072492800C0B211EB40100268704812
:101F200002402800C0B211EB40110A60002032BD0F
:101F300038B504000D002900C9B2D4F8980201F0A8
:101F400016FD002032BD38B504000D002900C9B2CD
:101F5000D4F8980201F097FC002032BD38B5040097
:101F60000D002900C9B2D4F8980201F0CBFC002082
:101F700032BD0200D2F898320800C0B2000609D57E
:101F8000C9B211F07F011C20414303EB010090F81E
:101F90003A0008E0C9B211F07F011C20414303EB75
:101FA000010090F8FA01704738B504000D002900CF
:101FB000C9B2D4F8980201F052FB002032BDF8B546
:101FC00004000D0016001F003B009BB232002900E8
:101FD000C9B2D4F8980201F020FC0020F2BDF8B597
:101FE00004000D0016001F003B009BB232002900C8
:101FF000C9B2D4F8980201F0D0FB0020F2BD38B588
:1020000004000D002900C9B2D4F8980201F0FBFBCE
:1020100032BD2DE9FE43684600210022002380E8FE
:102020000E0000275FF000085FF00009C2240125C0
:10203000002001F025FDC01C042190FBF1F6ADF855
:10204000006001212800C0B288420CDB684630F8ED
:102050001120102A02DA102220F8112030F8110085
:102060008619491CEEE71B34200080B210FA86F076
:1020700040F24111884203D2D6F5A070040001E07D
:1020800000F0FCFC124F210089B2380001F063FD22
:102090005FF000082800C0B240450BDB684630F80E
:1020A000182040460100C9B2380001F01DFD18F1AA
:1020B0000108EFE70020BDE8FE83000000E100E03A
:1020C0000000024024000240080002403438024070
:1020D000D400002000090050007833FC000B0050B1
:1020E0000078FFFF70B504000D000026287810F07E
:1020F000600000280AD0202801D040283ED12900C5
:102100002000D4F88C22926890473BE06878002841
:1021100020D0012828D0032821D005280BD006285C
:1021200004D0082811D009280AD022E02900200074
:1021300000F0A0F921E02900200000F04DFA1CE099
:102140002900200000F07CFA17E02900200000F0B0
:10215000E1FA12E02900200000F003FB0DE0290065
:10216000200000F024FB08E02900200000F02CFBF8
:1021700003E02900200000F052FB03E029002000CA
:1021800000F04DFB3000C0B270BD70B504000D0012
:102190000026287810F06000002803D0202801D005
:1021A000402823D194F87402401E022819D82879B7
:1021B000022811DA29002000D4F88C229268904776
:1021C0000600E88800280BD13000C0B2002807D1F3
:1021D000200000F0A9FB03E02900200000F01FFB15
:1021E00003E02900200000F01AFB03E02900200092
:1021F00000F015FB002070BD2DE9F04104000D003A
:102200000026AF88287810F0600000280BD0202826
:1022100002D0402840F0268129002000D4F88C22EA
:102220009268904722E1287810F06000202807D1BA
:1022300029002000D4F88C2292689047C0B217E1A0
:102240006878002870D001283CD0032840F0058130
:1022500094F87402022802D0032817D02DE0380029
:10226000C0B200280DD03800C0B2802809D0390093
:10227000C9B22000FFF767FE80212000FFF763FE50
:1022800003E02900200000F0CAFA1AE0688800285C
:102290000FD13800C0B200280BD03800C0B280285F
:1022A00007D0E888002804D13900C9B22000FFF720
:1022B0004AFE200000F038FB03E02900200000F077
:1022C000AEFACEE094F87402022802D0032817D0A8
:1022D00025E03800C0B200280DD03800C0B28028F8
:1022E00009D03900C9B22000FFF72DFE802120005F
:1022F000FFF729FE03E02900200000F090FA12E029
:10230000688800280AD117F07F0F04D03900C9B2BD
:102310002000FFF723FE200000F006FB03E0290069
:10232000200000F07CFA9CE094F87402022802D0AD
:1023300003282FD08CE03800C0B2002808D0380025
:10234000C0B2802804D02900200000F068FA83E0A1
:102350003800C0B200060AD53900C9B211F07F01B9
:102360001420414304EB010010F1140809E0390086
:10237000C9B211F07F011420414304EB010010F5B4
:10238000A0780020C8F8000002224146200000F09A
:1023900083FA61E03800C0B200060FD53900C9B237
:1023A00011F00F011420414304EB01008069002863
:1023B00015D12900200000F032FA4DE03900C9B2F1
:1023C00011F00F011420414304EB0100D0F8440147
:1023D000002804D12900200000F021FA3CE0380058
:1023E000C0B200060AD53900C9B211F07F0114202D
:1023F000414304EB010010F1140809E03900C9B2AF
:1024000011F07F011420414304EB010010F5A07886
:102410003800C0B2002803D03800C0B2802803D1F1
:102420000020C8F800000DE03900C9B22000FFF715
:10243000A0FD002803D00120C8F8000002E0002021
:10244000C8F8000002224146200000F025FA03E00F
:102450002900200000F0E3F903E02900200000F04B
:10246000DEF903E02900200000F0D9F93000C0B205
:10247000BDE8F0817CB504000D00688880B2000AD8
:10248000C0B2012808D002280ED0032821D0062887
:1024900061D007286ED07EE06946207CD4F888227F
:1024A0001268904706007BE0207C002808D168462F
:1024B000D4F88C12896A884706000220707007E001
:1024C0006846D4F88C12C96A8847060002207070EA
:1024D00066E0A878002808D0022816D00DD304287A
:1024E00023D01AD3052828D02FE06946207CD4F8C1
:1024F00088225268904706002CE06946207CD4F878
:10250000882292689047060024E06946207CD4F82F
:102510008822D268904706001CE06946207CD4F8E7
:10252000882212699047060014E06946207CD4F89E
:1025300088225269904706000CE06946207CD4F856
:10254000882292699047060004E02900200000F0EC
:1025500066F940E024E0207C002806D16846D4F8E3
:102560008C12496B884706001AE02900200000F011
:1025700056F930E0207C002808D16846D4F88C1247
:10258000096B884706000720707009E029002000C9
:1025900000F045F91FE02900200000F040F91AE0A2
:1025A000BDF80000002810D0E88800280DD0BDF844
:1025B0000000E988884202D3E888ADF80000BDF841
:1025C00000203100200000F067F9E888002802D1DF
:1025D000200000F0A9F973BD70B504000D00A888B3
:1025E000002828D1E888002825D16888802822D2B0
:1025F000A87810F07F00060094F87402032804D134
:102600002900200000F00BF919E084F8766231000F
:10261000C9B22000FFF7C8FC200000F085F93000A7
:10262000C0B2002803D0022084F8740207E0012021
:1026300084F8740203E02900200000F0F0F870BD77
:1026400070B504000D00324E688830703078022872
:1026500004DB2900200000F0E2F857E094F874024F
:10266000022802D003281BD048E03078002813D07D
:1026700030786060032084F874023178200000F024
:10268000FAFA022804D12900200000F0C8F83DE041
:10269000200000F049F902E0200000F045F935E0A3
:1026A000307800280CD1022084F874023078606001
:1026B0003178200000F0F5FA200000F035F91CE038
:1026C00030786168884215D06168C9B2200000F096
:1026D000E8FA307860603178200000F0CCFA022807
:1026E00004D12900200000F09AF80FE0200000F04B
:1026F0001BF902E0200000F017F907E02900200094
:1027000000F08DF83178200000F0CBFA70BD0000A9
:10271000B109002038B504000D00E888012804D074
:102720002900200000F07BF81AE094F87402401EA3
:10273000012802D9801E09D00EE00020A0600122ED
:1027400014F10801200000F0A7F809E00122211D82
:10275000200000F0A1F803E02900200000F05FF85D
:1027600031BD38B504000D0094F87402401E0228F3
:1027700018D8E888022804D02900200000F04FF87B
:1027800014E00020E060D4F87C02002803D0E06868
:1027900050F00200E060022214F10C01200000F071
:1027A0007BF803E02900200000F039F831BD38B58E
:1027B00004000D006888012805D10120C4F87C02BE
:1027C000200000F0B1F831BD38B504000D0094F8D8
:1027D0007402401E022809D86888012805D100200B
:1027E000C4F87C02200000F09FF803E029002000DC
:1027F00000F015F831BD0A7802704A7842708A7884
:10280000CB781B029A1842800A794B791B029A18DE
:1028100082808A79CB791B029A18C280704738B5BA
:1028200004000D0080212000FFF78DFB0021200017
:10283000FFF789FB31BDF8B504000D001600002735
:10284000002C1ED0200000F01DF84000801C3080BD
:1028500030783900C9B268547F1C03203900C9B2EE
:1028600068547F1C207800280BD020783900C9B22A
:102870006854641C7F1C00203900C9B268547F1C56
:10288000F0E7F1BD020000201178002902D0401CC1
:10289000521CF9E7C0B2704770B504000D00160075
:1028A0000220C4F86C02300080B2E061300080B2D7
:1028B000206233009BB22A0000212000FFF77FFB3B
:1028C000002070BD70B504000D00160033009BB2EF
:1028D0002A0000212000FFF772FB002070BD70B5B8
:1028E00004000D0016000320C4F86C02300080B212
:1028F000C4F84801300080B2C4F84C0133009BB2E8
:102900002A0000212000FFF76AFB002070BD70B58F
:1029100004000D00160033009BB22A0000212000A5
:10292000FFF75DFB002070BD10B504000420C4F863
:102930006C020023002200212000FFF740FB002052
:1029400010BD10B504000520C4F86C02002300225D
:1029500000212000FFF743FB002010BD10B410F051
:102960000703384C22684FF6FF010A40364951EA06
:1029700003210A43226010BC704780B500F002F8C2
:1029800030BFFDE710B50320FFF7E8FF002001F09E
:10299000FFF840F205702D4908602D48016851F498
:1029A0008031016001688903FCD52A492A4A1160F7
:1029B0002A494FF414420A60026852F080720260A1
:1029C00002689201FCD5086850F0020008600868AF
:1029D00010F00C000828FAD12148016851F00701D5
:1029E00001600168C907FCD501688907F9D501684C
:1029F0004907F6D51B48016851F4804101601A4926
:102A00000A6852F4A0520A6002685204FCD50A68AF
:102A100012F4A052B2F5A05FF6D1144C0022144972
:102A2000200000F0F7F801F0F0FA1249200000F061
:102A30000DF911492000FFF736F8200000F011F9D8
:102A400010BD00000CED00E00000FA05003C024063
:102A50000038024008544027043802400838024039
:102A6000303802400C0402400C080240D004002020
:102A700080000020280000206C000020704780B5F6
:102A8000FFF7FCFF01BD30B4002513E050F8042B24
:102A9000D30744BFA9F101039A18091F042942F87A
:102AA000045BFAD213468C0744BF15809B1CC907F0
:102AB00048BF1D7050F8041B0029E7D130BC704797
:102AC0000749086808B1002070470648C008C000E0
:102AD00008600549C908C900091A0160704700BFAC
:102AE000A4090020BF110020B8B10020DFF80801C0
:102AF0000068C0F302207047010049B2002909D4E0
:102B0000012210F01F018A403C4903005BB25B09BF
:102B100041F82320704710B4020052B2002A05D4B5
:102B20000A01374B040064B21A5508E00A01354B1C
:102B3000040064B214F00F04234403F8042C10BC06
:102B4000704770B4030013F00704D4F107000528A0
:102B500001D3042001E0D4F10700251D072D01D287
:102B6000002500E0E51E012616FA00F0401E014097
:102B7000A94016FA05F56D1E2A401143080070BCE5
:102B8000704710B50400601EB0F1807F01D30120B2
:102B90000EE0601E1C4908600F215FF0FF30FFF758
:102BA000BAFF002019490860072019490860002071
:102BB00010BD2DE9F04104000D0016000027FFF7BD
:102BC00095FF8046320029004046FFF7BAFF01001A
:102BD000200040B2FFF79FFFBDE8F08110B5040070
:102BE000200040B2FFF788FF10BD10B504002000A0
:102BF000FFF7C7FF10BD00000CED00E000E100E0B2
:102C000000E400E018ED00E014E000E018E000E06F
:102C100010E000E070B505000C001600002D01D199
:102C2000022012E0D5F88C02002802D00020C5F85E
:102C30008C02002C01D0C5F88842012085F874026E
:102C40002E702800FFF709F9002070BD0200002354
:102C5000002903D0C2F88C12002000E00220C0B28C
:102C6000704710B504002000FFF71BF9002010BDCD
:102C700001000020704770B504000D000226D4F852
:102C80008C0200280AD02900C9B22000D4F88C2276
:102C900012689047002801D1002006003000C0B221
:102CA00070BD38B504000D002900C9B22000D4F869
:102CB0008C2252689047002032BD38B504000D00C8
:102CC000290014F52070FFF796FD0120C4F86C026E
:102CD000B4F88602C4F8700294F8800210F01F0065
:102CE000C0B2002803D002280DD006D311E014F59D
:102CF00020712000FFF7F6F912E014F52071200092
:102D0000FFF743FA0CE014F520712000FFF774FA86
:102D100006E094F8801211F080012000FFF713F90B
:102D2000002032BDF8B504000F0015003800C0B215
:102D300000282DD114F5A0700600D4F86C020328E9
:102D400036D13069F168884210D2F1683069091AC9
:102D5000F160F0683169884201D2F26800E03269BE
:102D600092B229002000FFF7D2FD21E0D4F88C02B6
:102D70000069002808D094F87402032804D12000C8
:102D8000D4F88C12096988472000FFF7CDFD0FE0C9
:102D9000D4F88C02806900280AD094F874020328C1
:102DA00006D13900C9B22000D4F88C22926990472C
:102DB0000020F2BDF8B504000D0016002800C0B2D6
:102DC000002857D114F114000700D4F86C0202282F
:102DD00045D13869F968884210D2F9683869091A0A
:102DE000F960FA6892B231002000FFF76BFD002312
:102DF000002200212000FFF7F2F830E0B8683969BE
:102E0000B0FBF1F201FB1200002817D1B868396954
:102E1000884213D3B868D4F8701288420ED20022C8
:102E200000212000FFF74EFD0020C4F870020023AF
:102E3000002200212000FFF7D2F810E0D4F88C0225
:102E4000C068002808D094F87402032804D1200038
:102E5000D4F88C12C96888472000FFF772FD94F8F7
:102E60007802012816D12000FFF702FF002084F825
:102E700078020FE0D4F88C02406900280AD094F858
:102E80007402032806D12900C9B22000D4F88C228C
:102E9000526990470020F2BD10B504004023002283
:102EA00000212000FFF705F84020C4F8500140231E
:102EB000002280212000FEF7FCFF402060620120FC
:102EC00084F87402D4F89002002806D06168C9B270
:102ED0002000D4F88C2252689047002010BD0200D8
:102EE000117400207047010091F8740281F8750296
:102EF000042081F8740200207047010091F87502E7
:102F000081F874020020704710B5040094F8740230
:102F1000032809D1D4F88C02C069002804D020000D
:102F2000D4F88C12C9698847002010BD38B5040058
:102F30000D0094F8740203280BD1D4F88C02006AB7
:102F4000002806D02900C9B22000D4F88C22126AC9
:102F50009047002032BD38B504000D0094F874028B
:102F600003280BD1D4F88C02406A002806D029002F
:102F7000C9B22000D4F88C22526A9047002032BD9A
:102F800001000020704710B50400012084F874028D
:102F90006168C9B22000D4F88C22526890470020A2
:102FA00010BD38B58AB004000025002C01D10120E5
:102FB0008AE0032084F8B9032000FEF7AFFE206802
:102FC000FDF73EF9211D83B06846342201F076F802
:102FD0000EBC2068FDF7F6F800212068FDF737F9F0
:102FE00000200F2826D21C21012201FB00F32344DC
:102FF00083F8392001FB00F2224482F8380001FBFB
:1030000000F22244D087002201FB00F3234483F81E
:103010003B20002201FB00F323441A64002201FB41
:1030200000F323445A64002201FB00F12144CA64E6
:10303000401CD6E700250F2D2FD21C20002100FBBD
:1030400005F2224482F8F91100FB05F1214481F8D0
:10305000F85100FB05F12144CD87002100FB05F26A
:10306000224482F8FB11002100FB05F22244C2F841
:103070000012002100FB05F22244C2F804120021D4
:1030800000FB05F02044C0F80C120020216801EB81
:103090008501C1F804016D1CCDE7211D83B0684690
:1030A000342201F00BF80EBC2068FDF7EDF801208A
:1030B00084F8B903606A012802D1200000F052FDB3
:1030C0002068FDF790FE00200BB030BD10B5040065
:1030D00094F8B803012801D102200CE0012084F803
:1030E000B8032068FDF770FE2068FDF7A2F8002005
:1030F00084F8B803002010BD2DE9F84F06003768AA
:103100005FF0000800255FF0000900245FF0000A6E
:103110005FF0000B3068FDF7B4FE002840F09D82A0
:103120003068FDF76FFE002800F097823068FDF7E9
:1031300069FE800705D53068406910F002003168EB
:1031400048613068FDF75EFE000377D5002004007B
:103150003068FDF75DFE0500002D6FD0E8076AD5E9
:103160002100C9B23068FDF767FE81465FEAC97089
:1031700043D517EB441010F53060012181603069B0
:10318000012822D11C2000FB04F13144D1F80012A7
:1031900017EB441212F5306212695203520B891A6E
:1031A00000FB04F23244C2F8101200FB04F1314477
:1031B000D1F8041200FB04F23244D2F80022114488
:1031C00000FB04F03044C0F804122100C9B2300002
:1031D000FEF7D0FD306901280FD1002C0DD11C2045
:1031E00000FB04F03044D0F80C02002805D116F59D
:1031F0006F7201213068FDF76AFE5FEA097008D539
:103200003000FEF7AEFD17EB441010F530600821DA
:1032100081605FEAC96005D517EB441010F5306096
:10322000102181605FEA896005D517EB441010F525
:10323000306020218160641C6D088DE73068FDF7E7
:10324000E1FD400379D53068FDF7ECFD0500002075
:103250000400002D71D0E8076CD52100C9B2306898
:10326000FDF7F7FD81465FEAC97038D50120A0401F
:10327000824617F50060406B30EA0A0017F50061DE
:10328000486317EB441010F510600121816030692C
:1032900001280DD11C2000FB04F13144496C00FBD6
:1032A00004F23244126C114400FB04F030444164D7
:1032B0002100C9B23000FEF76FFD306901280ED140
:1032C000002C0CD11C2000FB04F03044C06C002802
:1032D00005D116F56F7201213068FDF7F8FD5FEA40
:1032E000097005D517EB441010F5106008218160B6
:1032F0005FEAC96005D517EB441010F51060102186
:1033000081605FEA496005D517EB441010F5106045
:10331000402181605FEA897005D517EB441010F5F4
:103320001060022181605FEA096003D5210030004E
:1033300000F03DFB641C6D088BE73068FDF762FD13
:1033400000281CD517F5006040684008400017F5BC
:103350000061486096F8EC03012807D1002086F848
:10336000EC030021300000F011FC02E03000FEF719
:103370004BFD3068406910F00040316848613068AA
:10338000FDF740FD00050DD517F500608068C0070A
:1033900002D53000FEF731FD3068406910F400605E
:1033A000316848613068FDF72DFD00011AD530689D
:1033B000406910F000603168486196F8EC0300281D
:1033C0000DD1012086F8EC033068406DC0F3830016
:1033D000C6F8F0030121300000F0D8FB02E0300015
:1033E000FEF70BFD3068FDF70DFDC00466D517F53F
:1033F000006040684008400017F5006148601021F7
:103400003068FDF71FF800208046706880450DD2B7
:10341000FF2017EB481111F51061886017EB481178
:1034200011F53061886018F10108EEE75FF0FF30B8
:1034300017F50061886117F50060C06950F0011050
:1034400017F50061C861306B002812D017F50060D5
:10345000D0F8840050F00B0017F50061C1F884002B
:1034600017F50060406C50F00B0017F500614864E0
:103470000FE017F50060406950F02B0017F5006170
:10348000486117F50060006950F00B0017F5006106
:10349000086117F50060006830F4FE6017F5006100
:1034A000086016F56F723169C9B23068FDF70FFD1B
:1034B0003068406910F48050316848613068FDF729
:1034C000A1FC80042CD53068FDF7DFFC3068C068B3
:1034D00030F470503168C8603068FCF7E1FF0028B4
:1034E0000BD10020F0604FF4007070613068C0684C
:1034F00050F410503168C86009E00320F0604020AB
:1035000070613068C06850F4C0503168C8603000E5
:10351000FEF75AFC3068406910F400503168486189
:103520003068FDF76FFCC00647D53068806930F021
:10353000100031688861386A83461BF00F011C2037
:10354000414306EB010010F5FC700090CBF34340C3
:1035500002281BD147F6F0701BEA000F27D0CBF3EF
:103560000A1292B20098C1683800FDF768FB009813
:10357000C068CBF30A1108440099C86000988169BB
:10358000CBF30A1041180098816110E0CBF343405F
:1035900006280CD1082216F56F713800FDF74FFB95
:1035A00000988169CBF30A10411800988161306856
:1035B000806950F01000316888613068FDF722FCA6
:1035C000000708D53000FEF7F8FB3068406910F0BE
:1035D0000800316848613068FDF714FCC0020AD564
:1035E0002100C9B23000FEF720FC3068406910F4B9
:1035F0008010316848613068FDF704FC80020AD50C
:103600002100C9B23000FEF706FC3068406910F4B2
:103610000010316848613068FDF7F4FB400008D5C0
:103620003000FEF70CFC3068406910F080403168D3
:1036300048613068FDF7E6FB40070ED5306840680A
:1036400083465FEA4B7002D53000FEF7FFFB30681F
:1036500040685BEA000031684860BDE8F18F38B52A
:1036600004000D0094F8B803012801D102200BE0FA
:10367000012084F8B8032900C9B22068FDF78DFB4A
:10368000002084F8B803002032BD2DE9F84304007F
:103690000D0016001F005FF000082800C0B20006F1
:1036A0000AD52900C9B211F07F011C20414304EB67
:1036B000010010F1380909E02900C9B211F07F01B9
:1036C0001C20414304EB010010F5FC7915F07F004C
:1036D00089F800002800C0B2C00989F80100300054
:1036E00080B2C9F8080089F8037099F80100002831
:1036F00003D099F80000A9F806003800C0B20228EB
:1037000002D1002089F8040094F8B803012801D1FF
:1037100002200BE0012084F8B80349462068FCF73A
:10372000E6FE002084F8B8034046C0B2BDE8F2834C
:1037300070B504000D002800C0B200060AD52900AB
:10374000C9B211F07F011C20414304EB010010F1CC
:10375000380609E02900C9B211F07F011C2041435D
:1037600004EB010010F5FC7615F07F0030702800A6
:10377000C0B2C009707094F8B803012801D10220CA
:103780000AE0012084F8B80331002068FCF70FFF3D
:10379000002084F8B803002070BD2DE9F04104003A
:1037A0000D0016001F002900C9B211F07F011C2076
:1037B000414304EB010010F5FC78C8F80C60C8F830
:1037C00014700020C8F81800002088F8010015F0D7
:1037D0007F0088F800002069012801D1C8F8106036
:1037E00015F07F0F06D12269D2B241462068FDF75D
:1037F0000BF905E02269D2B241462068FCF75DFF73
:103800000020BDE8F081C9B211F00F011C22514324
:103810000844D0F8100280B270472DE9F04104004E
:103820000D0016001F002900C9B211F07F011C20F5
:10383000414304EB010010F13808C8F80C60C8F8E7
:1038400014700020C8F81800012088F8010015F055
:103850007F0088F800002069012801D1C8F81060B5
:1038600015F07F0F06D12269D2B241462068FDF7DC
:10387000CBF805E02269D2B241462068FCF71DFF73
:103880000020BDE8F08170B504000D002800C0B232
:1038900000060AD52900C9B211F07F011C2041435E
:1038A00004EB010010F1380607E02900C9B21C2022
:1038B000414304EB010010F5FC760120B07015F0D7
:1038C0007F0030702800C0B2C009707094F8B8034F
:1038D000012801D1022014E0012084F8B80331004E
:1038E0002068FDF7C0F915F07F0F06D114F56F724F
:1038F0002169C9B22068FDF7EAFA002084F8B8030C
:10390000002070BD70B504000D002800C0B2000694
:103910000AD52900C9B211F07F011C20414304EBF4
:10392000010010F1380607E02900C9B21C2041430C
:1039300004EB010010F5FC760020B07015F07F005C
:1039400030702800C0B2C009707094F8B803012824
:1039500001D102200AE0012084F8B8033100206878
:10396000FDF7D0F9002084F8B803002070BD38B509
:1039700004000D0094F8B803012801D1022015E0DD
:10398000012084F8B8032800C0B2000607D529003A
:10399000C9B211F07F012068FCF754FD02E02068F5
:1039A000FCF762FD002084F8B803002032BD2DE949
:1039B000FC4705000E002F6800205FF000081C2166
:1039C00001FB06F1294411F13809D9F81410D9F88E
:1039D00018400C1BD9F80810A14202D2D9F80800EF
:1039E000040014F1030A5FEA9A0A17EB461010F577
:1039F0001060806980B2824531D2D9F81800D9F8B8
:103A0000141088422BD2D9F81400002827D0D9F8F6
:103A10001410D9F81800091A0C00D9F80800A042AF
:103A200002D2D9F808000400E01C80088246286908
:103A3000C0B20090200003009BB23200D2B2D9F88D
:103A40000C103800FDF7D7F8D9F80C002044C9F85D
:103A50000C00D9F818002018C9F81800C5E7002C88
:103A60000AD10120B040804617F50060406B30EA73
:103A7000080017F5006148630020BDE8F6870000E4
:103A800010B5040000F0AFFA002C13D00100C9B249
:103A9000002904D0022908D0032909D002E00C49EA
:103AA000216007E00B49216004E00B49216001E03F
:103AB0000A4921600A49C0B231F8100010BD80B532
:103AC00000F091FA0749C0B251F8200002BD000091
:103AD000FC57000828550008E45500089C560008CB
:103AE000705A00081800002070B403000024002061
:103AF0001D686D6A0E00F6B2002E06D1100080B26D
:103B000055EA00401E68B06222E01868806A15EB32
:103B10001045002004002000C0B20E00F6B2761E50
:103B2000B0420ADA18682600F6B200EB8600D0F838
:103B3000040115EB1045641CEDE718680E00F6B2A1
:103B400000EB86001600B6B255EA0646C0F80061E2
:103B5000002070BC70470200080080B213685862F1
:103B60000020704701000A680120C1F8F40300201A
:103B700081F8EC03906950F000609061506D40F066
:103B8000805050F0030050650020704770470000DF
:103B900010B504004FF47A700D490978B0FBF1F0CC
:103BA0000C490968B1FBF0F0FFF71FF8002801D0BD
:103BB00001200CE0102C09D2002221005FF0FF3020
:103BC000FEF7F7FF04480460002000E0012010BD6C
:103BD000D00000201400002010000020DFF888141E
:103BE0000978891E012905D90FF219018165002183
:103BF000C16505E00FF2450181650FF29901C165CC
:103C000070470000F8B504000D0016003000C0B287
:103C1000032801D104200600280080B2012190FB76
:103C2000F1F03100C9B290FBF1F7390089B2200000
:103C300000F0DFFA00F08AFBF1BD0000F8B50400E7
:103C40000D0016003000C0B2032801D10420060088
:103C5000280080B2022190FBF1F03100C9B290FB44
:103C6000F1F7390089B2200000F0C3FA390089B2B7
:103C70003000C0B2022290FBF2F2380080B2424320
:103C800004EB420000F0C1FA00F065FB00F05EFBBF
:103C9000F1BD00002DE9F84F05000E0017003000BF
:103CA00080B2022190FBF1F0FDF716FF0400002C1A
:103CB00001D1FEF7E3FE3800C0B2032801D1042091
:103CC0000700FFB25FEA87084046C0B2022190FBBE
:103CD000F1F900200100320089B292B2914280F0E5
:103CE0009780010089B2022291FBF2F1020092B2A8
:103CF000AA5C0B009BB2EA54020092B22A445278AA
:103D00000B009BB22B445A70020092B22A44927864
:103D10000B009BB22B449A70020092B22A44D278D4
:103D20000B009BB22B44DA704A46D2B212FA80F2F0
:103D3000AA5C0B009BB2E2544A46D2B212FA80F25D
:103D40002A4452780B009BB223445A704A46D2B29E
:103D500012FA80F22A4492780B009BB223449A70A4
:103D60004A46D2B212FA80F22A44D2780B009BB2B1
:103D70002344DA703A00D2B2042A46D1020092B249
:103D80002A4412790B009BB22B441A71020092B2A2
:103D90002A4452790B009BB22B445A71020092B212
:103DA0002A4492790B009BB22B449A71020092B282
:103DB0002A44D2790B009BB22B44DA714A46D2B224
:103DC00012FA80F22A4412790B009BB223441A7132
:103DD0004A46D2B212FA80F22A4452790B009BB2C0
:103DE00023445A714A46D2B212FA80F22A44927996
:103DF0000B009BB223449A714A46D2B212FA80F267
:103E00002A44D27989B22144CA7150FA88F061E714
:103E1000300080B2022190FBF1FA0094300080B2B1
:103E2000022190FBF1F005EB000B52460099584639
:103E300000F034F92000FDF722FFBDE8F18F38B51E
:103E4000040000F025FA884D2878022801DB00F0F4
:103E500024FA86480078012803D1200000F00FF8EA
:103E600005E0200000F06EF9200000F094F92878B9
:103E7000022801DB00F0E1F900F0DAF931BD7C49FC
:103E80000A6832F420420A6002004AF644439A4229
:103E900006D0784B9A420BD0774B9A420DD002E075
:103EA0000A680A600DE00A6852F400520A6008E0ED
:103EB0000A6852F400420A6003E00A6852F42042A1
:103EC0000A60704738B5040000F0E2F9664D2878C2
:103ED000022801DB00F0E1F92100C9B2674800F0D7
:103EE0000CFA2000C0B200F07DFA2878022808DB26
:103EF0002100C9B2624800F000FA2000C0B200F010
:103F000079FA2878022801DB00F097F900F090F99F
:103F100031BD10B504002000C0B200F09BF952483A
:103F20000078022803DB2000C0B200F09BF910BD2E
:103F300070B504000D004D4E3078012802D100F01C
:103F400041F902E0200000F0FDF800F06DFA2800D1
:103F5000C0B200F00AFA2800C0B200F0ABF9424843
:103F6000007802280BDB00F08FFA2800C0B200F0C6
:103F70001CFA2800C0B200F0B1F900F05EF9307808
:103F8000012803D12000FFF77AFF02E0200000F0B3
:103F900002F900F04DF970BD33490A78022A06D0C3
:103FA000032A09D0022202710322C28008E00422FF
:103FB00002710F22C28003E0042202713322C28008
:103FC000032242744BF680320260012202810022F9
:103FD000C260002202740978002903D104214174CF
:103FE00024490160704720480078704725490A68D5
:103FF000254909688A18026024490968090C1A4A87
:104000001278891809044160704717490A782048D6
:104010000068C0F3C01002430A701E480A780368A3
:104020001B0913F002031A430A700A78002A0CD005
:10403000022A01D006D302E000220A7007E0012222
:104040000A7004E002220A7001E003220A7000688C
:10405000400607D41048016851F0884101600120F2
:104060000249087070470000AE090020AF09002027
:10407000140402400077010000EE020024580140C1
:1040800004580140107AFF1F187AFF1F147AFF1F8F
:1040900010040240100802400004024062B38B0783
:1040A00008D0521E11F8013B00F8013B00F02480BB
:1040B0008B07F6D1830740F0208000BF103A07D36A
:1040C00030B4B1E83810103AA0E83810F9D230BC5A
:1040D000530724BFB1E80810A0E8081044BF51F806
:1040E000043B40F8043BD20724BF31F8022B20F8F0
:1040F000022B44BF0B7803707047121F17D35B006D
:1041000009D151F8043B20F8023B1B0C121F20F888
:10411000023BF6D20BE051F8043B00F8013B1B0ACE
:1041200020F8023B1B0C121F00F8013BF3D238BFF2
:10413000121D521E24BF11F8013B00F8013BF8D8B4
:1041400070470000DFF860130A6832F080520A609E
:104150000A689200FCD44AF6444290420BD1DFF840
:104160004C23DFF84C331A60DFF84823136853F40C
:104170009053136007E0D04ACD4B1A60CD4A1368C4
:1041800033F4F85313600A6852F080520A600A68E8
:104190009200FCD57047C9490A6832F470020A607F
:1041A00000224AF64443984208D04BF68033B0FBD5
:1041B000F3F35B08D3F102031B051A000B681343EA
:1041C0000B607047BE48016851F400210160BD4892
:1041D000016851F050010160B648016851F4401186
:1041E00001607047B84800887047B848006880B2DE
:1041F000704738B504000D002A0092B22100B4487F
:1042000000F00DF8B048058031BD38B504000D0050
:104210002A0092B22100AF4800F001F831BD13002E
:104220009BB24360C160036853F0010303607047B1
:1042300080B5A24800F006F801BD80B5A64800F0A0
:1042400001F801BD016851F4803101600168C903C2
:10425000FCD5704710B504002100C9B2974800F0A2
:1042600009F810BD10B504002100C9B29A4800F049
:1042700001F810BD0A00D2B2002A04D0426852F000
:104280002002426003E0426832F020024260704740
:1042900080B58A4800F006F801BD80B58E4800F070
:1042A00001F801BD016831F4803101600168C90382
:1042B000FCD4704738B504008848016851F4800187
:1042C000016001684902FCD57C4D2800FFF7EAFF38
:1042D0002100C9B2280000F010F831BD38B5040043
:1042E0007D4D2800FFF7DEFF40F2024028602100EC
:1042F000C9B2280000F001F831BD012242605FF42C
:10430000A0228260026832F0E00202600A00D2B2AB
:10431000102A0AD1826842F4F85252F03F028260B9
:10432000026852F08002026009E0826842F47C5226
:1043300052F07F028260026852F0E0020260684A36
:10434000C260026852F400520260704780B55B4858
:1043500000F006F801BD80B55F4800F001F801BD2E
:10436000016851F400310160704738B504005D48C0
:10437000016851F48001016001684902FCD5544D87
:104380002100C9B2280000F01BF8286850F0100086
:104390002860554855490860002202214420FEF754
:1043A00008FC4420FEF71AFC31BD10B504002100C2
:1043B000C9B2484800F004F84D484E49086010BDA5
:1043C0004D4A02600A00D2B2102A04D1026852F4A7
:1043D0002052026003E0026852F4A0420260072209
:1043E0004261704710B504002100C9B2384800F09E
:1043F00009F810BD10B504002100C9B2354800F01D
:1044000001F810BD026832F4F04202600A00D2B234
:10441000102A04D1026852F42052026003E00268BC
:1044200052F4A042026070472548016851F0020131
:1044300001603248016851F00601016030480168AE
:1044400051F0030101602F48016851F002710160D1
:104450002D48016841F4C02151F0600101602B48F2
:10446000016851F0437101602948016851F400214D
:1044700001602848016851F0600101602648016828
:1044800051F44021016070471E48016851F020013D
:1044900001602248016851F4C06101601B48016855
:1044A00051F030010160704700380240486B000253
:1044B000883802408C3802400856000724580140D2
:1044C0000008024024080240AA0900208C6402402F
:1044D0008864024028640240045801404438024085
:1044E000000305003038024040580140906402400B
:1044F000205801403064024040040200200802407D
:10450000080802400004024024040240080402405B
:104510000000024024000240080002402004024043
:104520002DE9F04704000D00160037005FF0600829
:104530005FF00009BA464A4641465046FDF76CFB1B
:104540000120387201203870FD607C604FF44060BB
:10455000FDF7C2FAF864F86C002801D1FEF78EFA74
:10456000380000F0D5F90FF2513078620FF279304F
:10457000B8620FF28930F8620FF2854038630FF2AB
:10458000954078630FF2CD40B8630FF2DD40F863D9
:104590003800FFF723FB617CC900C9B27868006866
:1045A000FFF7C6FC7868427CB7F84810786CBB6DA2
:1045B0009847C04807600020BDE8F0872DE9F84F14
:1045C000BC4D2868002800F0738128680078002816
:1045D00000F06E81286890F85400800704D5002010
:1045E000296881F8540063E1286890F85400400776
:1045F00012D5032029680870286800F089F9286816
:1046000040680068FFF71BFC286890F8540010F021
:10461000FB00296881F85400286890F85400C0070E
:1046200025D52868C06C296848642868B0F840001F
:104630002968A1F848000020296881F853002868FB
:10464000B0F848705FF000082868D0F844904246FF
:1046500039004846FDF7E0FA032029680870286809
:1046600090F8540090F00100296881F854002868FF
:1046700090F85400000714D50320296808702868B2
:1046800000F046F928684068407CC000C0B2FFF7DF
:1046900019FC286890F8540010F0F700296881F898
:1046A000540028684068427C2868B0F848102868A0
:1046B000406C2B689B6D984728680078022840F072
:1046C000F7802868C268296803202B68DB689B682C
:1046D000984728684068407C032817D1286890F8DC
:1046E0005300002802D02868C06C05E02868C06C20
:1046F0002968B1F84810084429684864286890F887
:10470000530090F00100296881F853002868B0F840
:1047100040002968A1F848002868008B04004AF688
:104720004441286840680068884215D12868007FA5
:10473000092805DA2868007F401C2A6810770BE0FA
:1047400000202A6810772868B0F850002A68A2F87C
:1047500048002868408B040028684069C0882A689F
:1047600052699288904207D328684069C0882A68B5
:1047700052699688861B0AE028684069C2882868C2
:10478000406900898218286840698688961B300035
:104790002A68B2F8402080B2904208D22868C268E5
:1047A000296805202B68DB689B68984780E02868AB
:1047B0004068407C032808D1220092B22868416CEE
:1047C0002868406900F029F949E0286840690068D4
:1047D0002A685269928810442A68506428684068A0
:1047E000006888423BD12868406900892968496986
:1047F0008F88C71B38002968B1F8481080B28842FA
:104800002DD2B8461FFA88F82868406900682968E0
:104810004969898800EB01092868D0F84CA0424614
:1048200049465046FFF73AFC2868B0F84800BA46B7
:104830001FFA8AFAB0EB0A0A2868406900680090FB
:104840002868C06C390089B200EB010B5246009910
:104850005846FFF723FC2868C06C2968486428681C
:104860004068007903280ADB28684068427C286891
:10487000B0F848102868406C2B68DB6D98472868B2
:1048800040698088201829684969888028684069BB
:104890008088296849690989884209D3286840695C
:1048A0008188286840690089091A286840698180E0
:1048B000BDE8F18F9009002070B504000D002E00B6
:1048C0007461002086F854002A007068017C002082
:1048D00000F096F82A007068C168002000F09AF88D
:1048E00002203070002070BD01000A0092F85400D0
:1048F00050F0010082F854000020704701000A00C7
:1049000092F8540050F0040082F8540000207047E0
:10491000F8B50400606800684FF47A71B0FBF1F0FC
:104920006168097910FB01F06168497C10FB01F0B6
:104930002083606800684FF47A71B0FBF1F0616821
:10494000097910FB01F06168497C10FB01F0A4F8C3
:104950004000002084F85200002084F85300606872
:10496000407C032814D1606800684FF47A71B0FB72
:10497000F1F06168097910FB01F080B28000A4F8C1
:104980004000012084F85200B4F84000A4F8500020
:10499000606800684AF64441884220D1012084F8CA
:1049A0005200218B606802796068407C4243501855
:1049B0006083B4F840106068427C606800794243CC
:1049C0005018A4F850006068407C032807D1B4F860
:1049D00040006168097989000818A4F85000B4F80B
:1049E00040500026E76C320029003800FDF714F92A
:1049F000E06C6064B4F84000A4F84800F1BD000029
:104A000070B504000D0016002800C0B2FFF781FA4F
:104A1000002070BD030000207047F0B4002384889C
:104A20000025954213DA0026CE545B1C0026032E87
:104A30000BDA0789BC4201D100273C0007683F5DC3
:104A4000CF54641C5B1C761CF1E7ED1CE9E7F0BC5D
:104A50007047000038B504002500FFF7C6FBA5F835
:104A60005600002032BD000070B504002500FFF79D
:104A7000BCFB0600FFF7B6FB0100B5F85600B042DC
:104A800003DBB5F85600801B03E0881BB5F8562001
:104A90008018B0EB610F00DA0818A5F8566080B2F4
:104AA00070BD010091F8542052F0080281F85420A2
:104AB0007047000070B404001D006960EA600020C7
:104AC000287501202870002028720FF299002862B2
:104AD0000FF29D0068620FF2DD00A8620FF2C900BC
:104AE000E86208684FF47A76B0FBF6F00E7910FBB6
:104AF00006F04E7C10FB06F0E883086810F57A702B
:104B00004FF47A76B0FBF6F00E7910FB06F04E7C8F
:104B100010FB06F0A8830120207000206080002098
:104B2000A08063630FF2A50020610FF2891060611D
:104B30000FF2FD10A0610FF20D30E0610120A080A6
:104B40000FF2F11020620FF2F9106062DFF8C0037B
:104B50000668A662C068E06201202063002070BC85
:104B6000704700000100002008700020704700001E
:104B700030B4030014002078012802D020780328E4
:104B80000FD102202070A3610020A569E880A069F0
:104B9000C088A569A88000202075207A002800D14F
:104BA0002186002030BC704701000A0003201070ED
:104BB0000020704701000A001078022803D140202D
:104BC0001075002000E00020704700002DE9F84F2C
:104BD00004000D002F003878022866D1387D400689
:104BE0000AD5002038750020B969C880B869C08826
:104BF000B969888000205BE0B8690600F088201859
:104C0000F080387DC0070AD4FA6839000120FB68BB
:104C10009B689847387D50F00100387547E030892F
:104C2000F188884210D2F1883089091AF180B6F8EB
:104C300006903068318900EB010AD6F800B04A4688
:104C400051465846FFF72AFAF088B188884205D3C2
:104C5000F088B6F80480B0EB080806E0F1883089E7
:104C60004118B6F80480B1EB0808F0883189884211
:104C700001D10020F080387D00070FD44046398EE6
:104C800080B288420AD3FA6839000020FB689B682A
:104C90009847387D50F00800387508E0FA68390008
:104CA0000220FB689B68984701E0FDF7E7FE0020C3
:104CB000BDE8F28FF8B504000D002600B08B288007
:104CC0003078022830D1B069C088B16989888842BB
:104CD00008D3B0698188B06900894118B069C78874
:104CE000CF1B04E0B0698088B169CF88C71B38004A
:104CF000B18B80B2884205D2F26831000420F3689B
:104D00009B689847307D400608D50020307500200C
:104D1000B169C880B069C088B1698880B06900682D
:104D2000B169C988084402E0FDF7A8FE0020F2BD81
:104D3000808B704702004868006810600020704750
:104D40002DE9F84305000E001700B846D8F8049086
:104D5000D9F80000A84240D098F80800002821D1D6
:104D600004226B49280000F03DF80400D9F8000047
:104D7000A04203D100203070002031E0C9F800408B
:104D8000D9F8000010F57A704FF47A71B0FBF1F0A9
:104D900099F8041010FB01F099F8111010FB01F0C4
:104DA000A8F81C00D9F800004FF47A71B0FBF1F0BC
:104DB00099F8041010FB01F099F8111010FB01F0A4
:104DC000A8F81E00D8F80C2041460820D8F80C306E
:104DD0009B6898470120307001E00020307000206F
:104DE000BDE8F28330B403000868834201D3086849
:104DF00026E001EB820050F8040C984204D301EB4A
:104E0000820050F8040C1BE00120904217DA51F8A0
:104E10002040A34211D351F820401C1B01EB800518
:104E200055F8045CEB1A9C4204D301EB800050F867
:104E3000040C01E051F8200002E0401CE5E70020EE
:104E400030BC70470100002070472DE9F84F040086
:104E50000D0016001F00B8465FF054095FF0000A0D
:104E6000C346524649465846FCF7D6FE012088F80C
:104E70000000022088F8080088F814602548C8F867
:104E800040000FF29500C8F844000FF29900C8F8EE
:104E900048000FF2C100C8F84C000FF2D100C8F86A
:104EA00050000FF25911C8F830100FF2B501C8F8D0
:104EB0001810C8F81C000FF2E100C8F824000FF227
:104EC000F500C8F820002868002801D4286800E010
:104ED0002868A8F828006868002801D4686800E0FD
:104EE0006868A8F82A00A868A8F82C00E868C8F83C
:104EF00004002670002060800320A08006206070DF
:104F000018F11800A060E7600020BDE8F28F0000F3
:104F1000000000204B4E0008010000200870002017
:104F20007047000070B504000D002E0016F134002B
:104F300094E80E0080E80E0002203070B06B00286C
:104F400005D0F26B7068C1680020B36B98470020F1
:104F500070BD000001000A0003201070002070479F
:104F600003005068007C087000207047F8B504000A
:104F70000D0016003700786805743878022809D1CA
:104F8000786B002806D0FA6B2900C9B2200080B2E5
:104F90007B6B98470020F2BD03005068C068002872
:104FA00002D45068C06801E05068C06808800020E2
:104FB00070470000F8B504000D0016003700280007
:104FC00080B2B0F5004F02DA280080B205E0280078
:104FD00080B200F17F4010F57F007968C8603878B2
:104FE000022809D1B86B002806D0FA6B7868C1682E
:104FF000200080B2BB6B98470020F2BD010000206A
:10500000704730B41C00A4B20C1B1500ADB2B4FB49
:10501000F5F414FB02F404810024C480C488848065
:1050200030BC70472DE9F24F84B0040015001E001B
:1050300037005FF020085FF00009BA464A46414653
:105040005046FCF7E9FD01203874002078740FF217
:105050006D10B8604FF4A040B8834FF4A040FCF747
:105060003BFD78617869002801D1FDF707FDDFF885
:1050700080834046FEF790FF00202870DFF874938D
:105080004B463A004146201DFFF714FDC7F800903B
:10509000CDF80C804FF4C0600090DFF85C03019005
:1050A00080200290DFF854A35346162269460498E4
:1050B000FFF7CBFE2878401C2870C9F810A0DFF855
:1050C00040B35A4639004046FFF72AFACAF810B0F2
:1050D000012084F83C00812084F840000FF2FD108C
:1050E0006064A7640FF26520E064387C20700020C3
:1050F000A07001206070A6650FF2791020650FF294
:10510000D5106065B9F81E00B9F81C10884202D2AB
:10511000B9F81C9001E05FF000094B469BB2D8F84B
:1051200000004FF47A71B0FBF1F098F8041010FB16
:1051300001F098F8111010FB01F292B24FF4A04167
:1051400017F11400FFF75DFF01203871002005B052
:10515000BDE8F08F1FB504002079012802D0207926
:10516000032816D1A34AA08B022190FBF1F0010085
:1051700089B214F11400536A9847A1480290016B58
:105180000091406B01909D4968468A6C90470220CF
:105190002071002004B010BD10B504002079022851
:1051A0000AD19448C16A88479448C16C884794489A
:1051B000816A884703202071002010BD2DE9F0414D
:1051C00004000D00160037002000C0B2002808D0EF
:1051D000022812D004283AD0052838D008280DD04B
:1051E00045E0287A002807D1854917F114004A6A5A
:1051F000904700208349087039E038E08048C16A50
:1052000088477C48C18B828B914202D2B0F81C80C7
:1052100001E05FF00008764843469BB201684FF416
:105220007A72B1FBF2F1027911FB02F1407C11FBC1
:1052300000F292B24FF4A04117F11400FFF7E1FE23
:1052400000207049087000206F4908600FE06C482A
:10525000816A884700206B49087000206A4908600D
:105260003879022802D16348816A8847FFE7002025
:10527000BDE8F08170B504000D002E002000C0B222
:10528000002808D1707C002822D03000FFF784FF6E
:10529000002070741CE0707C002819D1FEF7A3FE7A
:1052A000002811D02000C0B2022804D002203168AA
:1052B0004968487403E0032031684968487400F085
:1052C00079F84F48FFF7EDFB3000FFF743FF7474A8
:1052D000002070BD010000207047000010B40100E4
:1052E0004748007802282CD1474A1068002801D08E
:1052F000106828E011F11402D0889388984205D3F1
:10530000908813891818D388C31A02E09088D3882C
:10531000C31A108980B2800880B2984204D33448FE
:105320000068B0F57A700EE010891489A4B2A40860
:10533000A4B2001B834204D32D48006810F57A7094
:1053400001E02B48006810BC70470000F8B504006D
:1053500026003079022829D12A4F3878002819D020
:105360002748C16B884705002848016811FA85F174
:10537000016027490A88521C0A800A88B2F57A7FA0
:1053800017D102685208204B1A6000220A800021BF
:1053900001600EE01A48816B884700201C49088094
:1053A00000201A4908600120387002E000201549E9
:1053B0000870F1BD0F480E490A684FF47A73B2FBCA
:1053C000F3F20B7912FB03F24B7C12FB03F2C28364
:1053D0000A6812F57A724FF47A73B2FBF3F20B7922
:1053E00012FB03F2497C12FB01F18183704700003C
:1053F000740900202009002000E7FFFFCC080020EE
:105400006C080020B00900209409002098090020B1
:10541000A8090020020012200880294870470200D5
:10542000042008802748704770B504000D00FEF77F
:1054300046FB254E2A003100FDF7FDF9300070BD16
:1054400070B504000D00204E2A0031001F48FDF702
:10545000F2F9300070BD38B504000D001A20288024
:1054600000F019F81A4832BD70B504000D00164E50
:105470002A0031001748FDF7DEF9300070BD70B525
:1054800004000D00FEF71BFB0F4E2A003100FDF754
:10549000D2F9300070BD1CB56846FEF7A7FD009834
:1054A00000280BD00A4C0822A11C009800F014F828
:1054B000042214F11201019800F00EF813BD00004F
:1054C0009C000020B00000206C070020585A000803
:1054D000B4000020385A000830B4002400231C0017
:1054E0001500E4B2EDB2AC421BD20400240F0A2C2A
:1054F00007D20400240F30341D00EDB201F815402E
:1055000006E00400240F37341D00EDB201F8154009
:10551000000100241D00EDB201EB45056C705B1C21
:10552000DDE730BC704700000902BA0002010080CC
:1055300064090400000001010000092401000128A1
:105540000001010C24021201010002030000000A04
:1055500024061612010100000009240314010300AF
:105560001600090401000001020000090401010203
:1055700001020000072401120101001424020102AB
:1055800002100444AC0080BB0000770100EE020969
:10559000050105080301008107250101000000093C
:1055A0000581010300010700090401020201020054
:1055B0000007240112010100112402010203180353
:1055C00044AC0080BB00007701090501054C0201D5
:1055D0000081072501010000000905810103000188
:1055E000070000000902B6000201008064090400FF
:1055F00000000101000009240100012A0001010C42
:10560000240212010100040F0000000C24061612EF
:10561000010100000000000924031401030016002A
:105620000904010000010200000904010102010255
:1056300000000724011201010011240201040210DC
:105640000344AC0080BB000077010905010510038D
:105650000100810725010100000009058101030007
:1056600001070009040102020102000007240112DF
:105670000101000E2402010403180244AC0080BBA7
:1056800000090501055802010081072501010000FC
:105690000009058101030001070000000902B600AE
:1056A00002010080640904000000010100000924D7
:1056B0000100012A0001010C24021201010004333F
:1056C0000000000C24061612010100000000000971
:1056D0002403140103001600090401000001020064
:1056E0000009040101020102000007240112010166
:1056F00000112402010402100344AC0080BB00002E
:10570000770109050105100301008107250101004A
:1057100000000905810103000107000904010202DC
:1057200001020000072401120101000E24020104FD
:1057300003180244AC0080BB0009050105580201B2
:105740000081072501010000000905810103000116
:10575000070000007047FEE7FEE7FEE7FEE7704740
:105760007047704780B500F03DF801BD80B5154821
:10577000FDF7C2FC01BD80B51348006800051FD5C8
:105780001248016831F4003101601148016831F4B8
:10579000003101600F4801684908490001600E4866
:1057A00001684908490001600C48016851F44461EE
:1057B00001600B48016851F444610160FEF7FEFE90
:1057C00001BD0000D40000200464024024580140C0
:1057D0000458014088640240286402400864024082
:1057E0000C64024003480168034A1278891801607A
:1057F000704700BF9C090020D000002009027700FC
:105800000201008064090400000001010000092475
:10581000010001280001010C240212010100020311
:105820000000000A240616120101000000092403EA
:105830001401030016000904010000010200000920
:105840000401010201020000072401120101000B02
:10585000240201020420010077010905010510035B
:1058600001008107250100000000090581010300F6
:1058700001070000F8B504000D00002600270020F5
:105880008DF800000A4B6A4630012044011D5C205F
:1058900000FB06F020441430FFF7C4FB761C9DF893
:1058A000000057FA80F1667021700020F2BD000000
:1058B00054090020020000207047010000207047BA
:1058C00070B504000D0016002000FEF7D9F82880FE
:1058D000002070BD0D49086850F0010008600020EC
:1058E0000B4A10600A680B4802400A600A480B4ADB
:1058F0001060086830F480200860002008490860C3
:105900005FF00060074908607047000000380240FF
:1059100008380240FFFFF6FE103000240438024031
:105920000C38024008ED00E0555342204932532024
:105930005052494D4520535550455220537465727D
:10594000656F20322E3020333220626974000000EF
:1059500010B5074979441831064C7C44163404E0EC
:105960000A68081D114488470146A142F8D110BDBC
:1059700008000000240000000FD1FFFFE008000035
:10598000D400002000000000FBC2FFFF3C0200002A
:1059900048010000000000205553422049325320A6
:1059A0005052494D4520535550455220537465720D
:1059B000656F20322E30000055534220493253206B
:1059C0005052494D452053555045522053746572ED
:1059D000656F20332E310000555342204932532049
:1059E0005052494D452053555045522051756164E0
:1059F000726F20342E30000000F00DF8002801D026
:105A0000FFF7A6FFAFF300800020AFF30080FCF7A4
:105A1000B4FF00F002F80120704700F001B8000068
:105A20000746384600F002F8FBE700002021090392
:105A300026311820ABBEF9E7415544494F20436F4A
:105A40006E66696700000000014880470148004712
:105A5000D5580008655A0008436869704469702E7B
:105A600000000000AFF30080AFF30080FFF7C4FF39
:105A70007700BA00B600B600FFF7FEBFFFF7FEBF23
:105A8000FFF7FEBFFFF7FEBFFFF7FEBFFFF7FEBF4A
:105A9000FFF7FEBFFFF7FEBFFFF7FEBFFFF7FEBF3A
:105AA000FFF7FEBFFFF7FEBFFFF7FEBFFFF7FEBF2A
:105AB000FFF7FEBFFFF7FEBFFFF7FEBFFFF7FEBF1A
:105AC000FFF7FEBFFFF7FEBFFFF7FEBFFFF7FEBF0A
:105AD000FFF7FEBFFFF7FEBFFFF7FEBFFFF7FEBFFA
